:02000000832853
:10000800FF00030E8301AE000A08AD008A017008E4
:10001800A3007B08A2007C08A1007D08A000850140
:10002800870189018601880100302402031C3C28CD
:100038000617861524088700240888000B30FB0063
:100048002630FC005D30FD00FD0B2828FC0B28281D
:10005800FB0B282800000000061C33283C28240835
:10006800003A031D3A280330A4003C28A4031828AA
:100078008B1C6128861C4A280616861606118613CC
:1000880006138611061C49284A283E288618562831
:10009800061586170612861206138611061C5528A1
:1000A80056284A28061C59285A283E28061286121D
:1000B80006118613061386118B102308F0002208F8
:1000C800FB002108FC002008FD002D088A002E0EE8
:0800D8008300FF0E7F0E0900FA
:0E00E000831203132A088A00290882000800F0
:1000EE0070208A110A128000840AA90A0319AA0A2A
:0800FE00F003031D7728080040
:10010600033083120313A400A501A601A701A801C9
:10011600483083169F0003308600870185018901D8
:1001260088018312850187018901860188018B1761
:100136000B168316011301308312A6000530A700A3
:100146000130A5000230A8000130AC0006152C08CD
:100156000319AF288617B028061725088500280832
:10016600880026088900270887000B30FB00263008
:10017600FC005D30FD00FD0BBE28FC0BBE28FB0B12
:10018600BE2800000000A703A8032608003A031DA6
:10019600E7282708003A031DE728260889002708CC
:1001A600870025088500280888000B30FB002630CC
:1001B600FC005D30FD00FD0BDE28FC0BDE28FB0B92
:1001C600DE280000000050292708003A031D0929EF
:1001D6002608003A031909292608890027088700F6
:1001E6002508850028088800A8030B30FB00263068
:1001F600FC005D30FD00FD0BFE28FC0BFE28FB0B12
:10020600FE2800000000A6030930A7002808003ACF
:10021600031D2B292508003A03192B2925088500DB
:10022600280888002608890027088700A7030B30BE
:10023600FB002630FC005D30FD00FD0B2029FC0B89
:100246002029FB0B202900000000A5030930A80087
:100256002508003A031D4F292808003A031D4F2997
:1002660026088900270887002508850028088800B1
:100276000B30FB002630FC005D30FD00FD0B4129F4
:10028600FC0B4129FB0B4129000000002608A500B4
:100296002708A8008613AC01A92806130611023008
:1002A600A600A7010230A5000330A8000130AB006C
:1002B60086162B0803196129061662298615250854
:1002C60085002808880026088900270887000B3043
:1002D600FB002630FC005D30FD00FD0B7029FC0B99
:1002E6007029FB0B7029000000002708003A031D47
:1002F6009A292608003A03199A29A6030930A70065
:10030600A8032608890009308700250885002808E3
:1003160088000B30FB002630FC005D30FD00FD0B35
:100326009229FC0B9229FB0B922900000000A703DF
:10033600A8032608003A031DC0292708003A031D12
:10034600C02926088900270887002508850028086F
:1003560088000B30FB002630FC005D30FD00FD0BF5
:10036600B229FC0BB229FB0BB229000000002508BC
:10037600A6002808A7000612AB012808003A031DAC
:10038600E2292508003A0319E229250885002808EC
:1003960088002608890027088700A7030B30FB0082
:1003A6002630FC005D30FD00FD0BD729FC0BD7295C
:1003B600FB0BD72900000000A5030930A80025087B
:1003C600003A031D012A2808003A031D012A2608BF
:1003D60089002708870025088500280888000B3033
:1003E600FB002630FC005D30FD00FD0BF829FC0B00
:1003F600F829FB0BF82900000000022A5B29861267
:0604060086119E28052A64
:02400E004A2F37
:00000001FF
